:100000000C942A000C943C000C943C000C943C0092
:100010000C943C000C943C000C943C000C943C0070
:100020000C943C000C943C000C943C000C943C0060
:100030000C943C000C943C000C9485000C943C0007
:100040000C943C000C943C000C943C000C943C0040
:100050000C943C0011241FBECFE5D4E0DEBFCDBF21
:1000600020E0A0E6B0E001C01D92A436B207E1F79F
:100070000E9432010C9467010C940000282F982FE5
:100080009270482F417050E0892F90E0880F991F9F
:10009000840F951F422F447050E0440F551F440FAA
:1000A000551F840F951F422F487050E073E0440F96
:1000B000551F7A95E1F7840F951F422F407150E04C
:1000C000E4E0440F551FEA95E1F7840F951F422F96
:1000D000407250E0F5E0440F551FFA95E1F7840FA8
:1000E000951F422F407450E0A6E0440F551FAA957B
:1000F000E1F7840F951F207830E03695322F2227C4
:1001000037952795820F931F08951F920F920FB670
:100110000F9211242F933F934F935F936F937F938D
:100120008F939F93AF93BF93CF93DF93EF93FF93FF
:100130000E942B0190936300809362008091620083
:10014000909163008F700E943E00EC018D2F0E9401
:1001500007018C2F8F700E9407018DE00E9407011C
:100160008AE00E9407010E943001CE01019664E6F8
:1001700070E00E943F01892B11F40E94E400FF917E
:10018000EF91DF91CF91BF91AF919F918F917F912F
:100190006F915F914F913F912F910F900FBE0F90F4
:1001A0001F90189597B3892B87BB88B38C7F88BB2A
:1001B00088B3682B68BB0895C09A0895C19A0895C2
:1001C000C0980895C198089598B381E0892788BBA5
:1001D000089598B382E0892788BB0895C29808954E
:1001E00086B382FB882780F9089583BF62BF4130C0
:1001F00019F489B7816089BF089582B7089510BC4A
:1002000087E689B988E98AB986E880BD08955D9B4B
:10021000FECF8CB908955F9BFECF8CB108950F93EC
:100220001F93CF93DF93EC018C01060F171FC017AC
:10023000D10721F089910E940701F9CFDF91CF9179
:100240001F910F91089590E497B997B1892B87B9C1
:100250008FE886B908953699FECF84B195B1089597
:10026000369A089560E083E00E94D2000E94FF0069
:1002700080E00E9423010E9430017894FFCF97FB19
:10028000072E16F4009407D077FD09D00E94530181
:1002900007FC05D03EF4909581959F4F0895709589
:1002A00061957F4F0895AA1BBB1B51E107C0AA1F90
:1002B000BB1FA617B70710F0A61BB70B881F991F07
:1002C0005A95A9F780959095BC01CD010895F894B1
:0202D000FFCF5E
:00000001FF
