:100000000C942A000C943C000C943C000C943C0092
:100010000C943C000C943C000C943C000C943C0070
:100020000C943C000C943C000C943C000C943C0060
:100030000C943C000C943C000C943E000C943C004E
:100040000C943C000C943C000C943C000C943C0040
:100050000C943C0011241FBECFE5D4E0DEBFCDBF21
:1000600020E0A0E6B0E001C01D92A436B207E1F79F
:100070000E94CE000C9403010C9400001F920F927A
:100080000FB60F9211242F933F934F935F936F936B
:100090007F938F939F93AF93BF93EF93FF93809141
:1000A00062009091630068EE73E00E94DB00892B90
:1000B00069F40E9494000E94C700909361008093AD
:1000C00060008F3F910511F40E9499000E94CC00BE
:1000D00080916200909163000196909363008093F9
:1000E0006200FF91EF91BF91AF919F918F917F91AE
:1000F0006F915F914F913F912F910F900FBE0F9095
:100100001F90189597B3892B87BB88B38C7F88BBCA
:1001100088B3682B68BB0895C09A0895C19A089562
:10012000C0980895C198089598B381E0892788BB45
:10013000089598B382E0892788BB0895C2980895EE
:1001400086B382FB882780F9089583BF62BF413060
:1001500019F489B7816089BF089582B7089510BCEA
:100160008FEF89B988E18AB98EE880BD08955D9BDB
:10017000FECF8CB908955F9BFECF8CB1089590E4BB
:1001800097B997B1892B87B98FE886B908953699C1
:10019000FECF84B195B10895369A089560E083E06A
:1001A0000E9482000E949E0080E00E94BF000E9488
:1001B000CC007894FFCF97FB072E16F4009407D05D
:1001C00077FD09D00E94EF0007FC05D03EF4909522
:1001D00081959F4F0895709561957F4F0895AA1B53
:1001E000BB1B51E107C0AA1FBB1FA617B70710F022
:1001F000A61BB70B881F991F5A95A9F78095909554
:0A020000BC01CD010895F894FFCF72
:00000001FF
