:100000000C942A000C943C000C943C000C943C0092
:100010000C943C000C943C000C943C000C943C0070
:100020000C943C000C943C000C943C000C943C0060
:100030000C943C000C943C000C943E000C943C004E
:100040000C943C000C943C000C943C000C943C0040
:100050000C943C0011241FBECFE5D4E0DEBFCDBF21
:1000600020E0A0E6B0E001C01D92AB36B207E1F798
:100070000E94E0000C944A010C9400001F920F9221
:100080000FB60F9211242F933F934F935F936F936B
:100090007F938F939F93AF93BF93EF93FF930E94B0
:1000A000D9004AE050E060E670E00E9415010E942D
:1000B000C4008AE00E94BC008DE00E94BC000E9447
:1000C000DE0080916700909168000196909368002F
:1000D00080936700809167009091680064E670E00B
:1000E0000E94ED00892B11F40E949900FF91EF917D
:1000F000BF91AF919F918F917F916F915F914F9140
:100100003F912F910F900FBE0F901F90189597B3AE
:10011000892B87BB88B38C7F88BB88B3682B68BB6F
:100120000895C09A0895C19A0895C0980895C198F5
:10013000089598B381E0892788BB089598B382E039
:10014000892788BB0895C298089586B382FB8827C3
:1001500080F9089583BF62BF413019F489B7816087
:1001600089BF089582B7089510BC87E689B988E9E8
:100170008AB986E880BD08955D9BFECF8CB908954D
:100180005F9BFECF8CB10895CF93DF93EC018991F3
:10019000882319F00E94BC00FACFDF91CF910C9414
:1001A000BC0090E497B997B1892B87B98FE886B9DD
:1001B00008953699FECF84B195B10895369A089581
:1001C00060E083E00E9487000E94B40080E00E940B
:1001D000D1000E94DE007894FFCF97FB072E16F423
:1001E000009407D077FD09D00E94010107FC05D0DB
:1001F0003EF4909581959F4F0895709561957F4F3E
:100200000895AA1BBB1B51E107C0AA1FBB1FA6175D
:10021000B70710F0A61BB70B881F991F5A95A9F7AF
:1002200080959095BC01CD0108954532510520F48B
:10023000423010F00C942001FB011082CB01089594
:10024000BB27FB015527AA27880F991FAA1FA417B0
:1002500010F0A41B83955051B9F7A05DAA3308F0A4
:10026000A95DA193009779F7B111B1931192CB01D8
:100270000C943A01DC01FC01672F71917723E1F7BF
:10028000329704C07C916D9370836291AE17BF0763
:08029000C8F30895F894FFCFB4
:00000001FF
