:100000000C942A000C9447000C9447000C94470071
:100010000C9447000C9447000C9447000C94470044
:100020000C9447000C9449000C9447000C948000F9
:100030000C9447000C9447000C9447000C94470024
:100040000C9447000C9447000C9447000C94470014
:100050000C94470011241FBECFE5D4E0DEBFCDBF16
:1000600010E0A0E6B0E0E6E8F2E002C005900D92F4
:10007000A236B107D9F720E0A2E6B0E001C01D9298
:10008000A436B207E1F70E940A010C9441010C94D6
:1000900000001F920F920FB60F9211242F933F93DF
:1000A0004F935F936F937F938F939F93AF93BF9380
:1000B000EF93FF93809162009091630065E070E0A0
:1000C0000E941901892B11F40E94BC0080916200EA
:1000D0009091630001969093630080936200FF917A
:1000E000EF91BF91AF919F918F917F916F915F91B0
:1000F0004F913F912F910F900FBE0F901F90189529
:100100001F920F920FB60F9211242F933F934F938C
:100110005F936F937F938F939F93AF93BF93EF936F
:10012000FF930E94E300809360000E94DF000E9422
:10013000C100FF91EF91BF91AF919F918F917F91FE
:100140006F915F914F913F912F910F900FBE0F9044
:100150001F90189597B3892B87BB88B38C7F88BB7A
:1001600088B3682B68BB0895C09A0895C19A089512
:10017000C0980895C198089598B381E0892788BBF5
:10018000089598B382E0892788BB0895C29808959E
:1001900086B382FB882780F9089583BF62BF413010
:1001A00019F489B7816089BF089582B7089510BC9A
:1001B00087E689B988E98AB986E880BD08955D9B9C
:1001C000FECF8CB908955F9BFECF8CB108950F933D
:1001D0001F93CF93DF93EC018C01060F171FC017FD
:1001E000D10721F089910E94DF00F9CFDF91CF91F3
:1001F0001F910F91089590E497B997B1892B87B912
:100200008FE886B908953699FECF84B195B10895E7
:10021000369A089563E083E00E94AA000E94C60017
:100220000E94D70041E060E085E00E94CD00789414
:10023000FFCF97FB072E16F4009407D077FD09D067
:100240000E942D0107FC05D03EF4909581959F4FAB
:100250000895709561957F4F0895AA1BBB1B51E1CE
:1002600007C0AA1FBB1FA617B70710F0A61BB70B26
:10027000881F991F5A95A9F780959095BC01CD01CB
:060280000895F894FFCF81
:02028600610015
:00000001FF
