:100000000C942A000C943C000C943C000C943C0092
:100010000C943C000C943C000C943C000C943C0070
:100020000C943C000C943E000C943C000C943C005E
:100030000C943C000C943C000C943C000C943C0050
:100040000C943C000C943C000C943C000C943C0040
:100050000C943C0011241FBECFE5D4E0DEBFCDBF21
:1000600020E0A0E6B0E001C01D92A236B207E1F7A1
:100070000E94A2000C94E0000C9400001F920F92CA
:100080000FB60F9211242F933F934F935F936F936B
:100090007F938F939F93AF93BF93EF93FF93809141
:1000A00060009091610065E070E00E94B800892BCB
:1000B00011F40E9487008091600090916100019688
:1000C0009093610080936000FF91EF91BF91AF9199
:1000D0009F918F917F916F915F914F913F912F9160
:1000E0000F900FBE0F901F90189597B3892B87BB69
:1000F00088B38C7F88BB88B3682B68BB0895C09A8F
:100100000895C19A0895C0980895C198089598B324
:1001100081E0892788BB089598B382E0892788BB4E
:100120000895C298089586B382FB882780F90895C0
:1001300083BF62BF413019F489B7816089BF0895D8
:1001400082B7089563E083E00E9475000E949100E9
:1001500041E060E085E00E94980078940E9493005E
:10016000811103C00E948100F9CF0E948500F6CF63
:1001700097FB072E16F4009407D077FD09D00E9454
:10018000CC0007FC05D03EF4909581959F4F0895D3
:10019000709561957F4F0895AA1BBB1B51E107C065
:1001A000AA1FBB1FA617B70710F0A61BB70B881F07
:1001B000991F5A95A9F780959095BC01CD01089596
:0401C000F894FFCFE1
:00000001FF
