:100000000C942A000C943C000C943C000C943C0092
:100010000C943C000C943C000C943C000C943C0070
:100020000C943C000C9445000C943C000C943C0057
:100030000C943C000C943C000C943C000C943C0050
:100040000C943C000C943C000C943C000C943C0040
:100050000C943C0011241FBECFE5D4E0DEBFCDBF21
:1000600020E0A0E6B0E001C01D92A236B207E1F7A1
:100070000E9474000C94AC000C94000085E083BFD7
:1000800012BE89B7816089BF08951F920F920FB683
:100090000F9211245F936F937F938F939F93AF93EE
:1000A000BF93809160009091610065E070E00E94D4
:1000B0008400892B21F498B381E0892788BB809143
:1000C00060009091610001969093610080936000C0
:1000D000BF91AF919F918F917F916F915F910F90A1
:1000E0000FBE0F901F90189587B3836087BB88B3AE
:1000F000836088BBC2980E943E007894B29902C087
:10010000C19AFCCFC198FACF97FB072E16F4009442
:1001100007D077FD09D00E94980007FC05D03EF477
:10012000909581959F4F0895709561957F4F0895A3
:10013000AA1BBB1B51E107C0AA1FBB1FA617B7070D
:1001400010F0A61BB70B881F991F5A95A9F7809529
:0C0150009095BC01CD010895F894FFCFFC
:00000001FF
